:100000000C9430000C94C1010C94C1010C94C101FA
:100010000C94C1010C94C1010C94C1010C94C10158
:100020000C94C1010C94C1010C94C1010C94C10148
:100030000C94C1010C94C1010C94C1010C94C10138
:100040000C94C1010C94C1010C94C1010C94C10128
:100050000C94C10100600061800061007900039090
:1000600011241FBECFE5D8E0DEBFCDBFE4E5F0E050
:1000700040E017C0B591A59135912591059107FDF7
:100080000CC095918591EF01F92FE82F05900D9205
:10009000A217B307D9F7FE0104C01D92A217B30738
:1000A000E1F7E036F40731F70E945A000C94B601EC
:0400B000F894FFCFF2
:1000B40040E060E082E00E94320141E061E083E0E0
:1000C4000E94320141E062E083E00E94320141E09B
:1000D40063E083E00E94320185E08A95F1F7C0E095
:1000E400D0E001E010E060E082E00E94690181114B
:1000F40007C00130110531F4219600E010E002C080
:1001040001E010E0CE0166E070E00E948E010097ED
:1001140081F440E061E083E00E94FA0040E062E0A4
:1001240083E00E94FA0040E063E083E00E94FA006A
:10013400DACF8130910581F441E061E083E00E94EF
:10014400FA0040E062E083E00E94FA0040E063E0ED
:1001540083E00E94FA00C7CF8230910581F441E028
:1001640061E083E00E94FA0041E062E083E00E94E3
:10017400FA0040E063E083E00E94FA00B4CF8330E9
:10018400910581F441E061E083E00E94FA0041E0DE
:1001940062E083E00E94FA0041E063E083E00E94B1
:1001A400FA00A1CF8430910581F441E061E083E05D
:1001B4000E94FA0041E062E083E00E94FA0040E01D
:1001C40063E083E00E94FA008ECF059709F08BCF9D
:1001D40041E061E083E00E94FA0040E062E083E0F5
:1001E4000E94FA0040E063E083E00E94FA007BCFC3
:1001F400843018F01092600030C04130B9F4E82F18
:10020400F0E0EE0FFF1FEF58FF4F0190F081E02D5B
:10021400208181E090E002C0880F991F6A95E2F77F
:10022400822B808381E08093600017C0E82FF0E088
:10023400EE0FFF1FEF58FF4F0190F081E02D20815A
:1002440081E090E002C0880F991F6A95E2F78095DB
:100254008223808381E08093600080916000089510
:10026400843020F01092600080E008954130B9F4A9
:10027400E82FF0E0EE0FFF1FE759FF4F0190F081E8
:10028400E02D208181E090E002C0880F991F6A95DB
:10029400E2F7822B808381E0809360000895E82F49
:1002A400F0E0EE0FFF1FE759FF4F0190F081E02DC2
:1002B400208181E090E002C0880F991F6A95E2F7DF
:0E02C40080958223808381E0809360000895FE
:1002D200843018F01092600003C091E090936000A7
:1002E200E82FF0E0EE0FFF1FEF59FF4F0190F08172
:1002F200E02D408181E090E09C01062E02C0220F99
:10030200331F0A94E2F7842F90E08223932302C0E2
:0A031200959587956A95E2F7089526
:10031C0097FB072E16F4009407D077FD09D00E94A6
:10032C00A20107FC05D03EF4909581959F4F08954E
:08033C00709561957F4F089553
:10034400AA1BBB1B51E107C0AA1FBB1FA617B707F7
:1003540010F0A61BB70B881F991F5A95A9F7809513
:080364009095BC01CD01089544
:10036C00EC010E94C6010E94C501CE010E94C7018A
:06037C00CE010E94C30146
:040382000C940000D7
:040386000E94580079
:02038A000895D4
:02038C000895D2
:02038E000895D0
:08039000390036003300300093
:080398003A0037003400310087
:0803A0003B003800350032007B
:00000001FF
