:100000000C9430000C9418010C9418010C941801F5
:100010000C9418010C9418010C9418010C941801FC
:100020000C9418010C9418010C9418010C941801EC
:100030000C9418010C9418010C9418010C941801DC
:100040000C9418010C9418010C9418010C941801CC
:100050000C94180100600061800061007100024290
:1000600011241FBECFE5D8E0DEBFCDBFE4E5F0E050
:1000700040E017C0B591A59135912591059107FDF7
:100080000CC095918591EF01F92FE82F05900D9205
:10009000A217B307D9F7FE0104C01D92A217B30738
:1000A000E1F7E036F40731F70E945A000C9403019F
:0400B000F894FFCFF2
:1000B40041E061E083E00E94CC00C0E0D0E00FC0EA
:1000C4000E940E0182EB90E00E941A0181E00E94DE
:1000D40015018823D9F313BE81E088BF2196CC3360
:1000E400D10574F341E061E083E00E949400C0E034
:1000F400D0E00FC00E940E0182EB90E00E941A0132
:1001040081E00E9415018823D9F313BE81E088BFE2
:100114002196CC33D10574F340E061E083E00E9482
:040124009400CBCFA9
:10012800843018F01092600030C04130B9F4E82FE4
:10013800F0E0EE0FFF1FE759FF4F0190F081E02D2F
:10014800208181E090E002C0880F991F6A95E2F74C
:10015800822B808381E08093600017C0E82FF0E055
:10016800EE0FFF1FE759FF4F0190F081E02D20812E
:1001780081E090E002C0880F991F6A95E2F78095A8
:100188008223808381E080936000809160000895DD
:10019800843020F01092600080E008954130B9F476
:1001A800E82FF0E0EE0FFF1FEF59FF4F0190F081AD
:1001B800E02D208181E090E002C0880F991F6A95A8
:1001C800E2F7822B808381E0809360000895E82F16
:1001D800F0E0EE0FFF1FEF59FF4F0190F081E02D87
:1001E800208181E090E002C0880F991F6A95E2F7AC
:0E01F80080958223808381E0809360000895CB
:10020600EC010E941F010E941E01CE010E942001E6
:06021600CE010E941C0154
:0E021C0085E083BF12BE88B7816088BF089559
:06022A0098B78923089536
:040230000C9400002A
:0402340082BF0895E8
:040238000E945800C8
:02023C00089523
:02023E00089521
:0202400008951F
:080242003A00370034003100DE
:08024A003B00380035003200D2
:00000001FF
