:100000000C9430000C9413020C9413020C94130201
:100010000C9413020C9413020C9413020C9413020C
:100020000C9413020C9413020C9413020C941302FC
:100030000C9413020C9413020C9413020C941302EC
:100040000C9413020C9413020C9413020C941302DC
:100050000C94130200600061800061007900043894
:1000600011241FBECFE5D8E0DEBFCDBFE4E5F0E050
:1000700040E017C0B591A59135912591059107FDF7
:100080000CC095918591EF01F92FE82F05900D9205
:10009000A217B307D9F7FE0104C01D92A217B30738
:1000A000E1F7E036F40731F70E945A000C94FE01A4
:0400B000F894FFCFF2
:1000B40040E060E081E00E94A20141E060E082E073
:1000C4000E94A20141E061E082E00E94A20141E0BD
:1000D40062E082E00E94A20141E060E083E00E94CD
:1000E400A20141E061E083E00E94A20141E062E0FC
:1000F40083E00E94A20101E010E0E12CF12CE70171
:10010400C370DD27209781F441E060E083E00E9422
:100114006A0140E061E083E00E946A0140E062E03D
:1001240083E00E946A0140C0C701837090789923DC
:1001340024F401978C6F9F6F01968130910581F4AF
:1001440040E060E083E00E946A0141E061E083E016
:100154000E946A0140E062E083E00E946A0124C0D8
:100164008230910581F440E060E083E00E946A01FE
:1001740040E061E083E00E946A0141E062E083E0E4
:100184000E946A0111C0039779F440E060E083E0C3
:100194000E946A0141E061E083E00E946A0140E05C
:1001A40062E083E00E946A01CD2B81F441E060E0CB
:1001B40082E00E946A0140E061E082E00E946A01FC
:1001C40040E062E082E00E946A0140C0C70183709F
:1001D4009078992324F401978C6F9F6F0196813056
:1001E400910581F440E060E082E00E946A0141E010
:1001F40061E082E00E946A0140E062E082E00E94E5
:100204006A0124C08230910581F440E060E082E01C
:100214000E946A0140E061E082E00E946A0141E0DC
:1002240062E082E00E946A0111C0039779F440E021
:1002340060E082E00E946A0141E061E082E00E94A5
:100244006A0140E062E082E00E946A0167018FEF88
:10025400C81AD80AC0E0D0E035C00E94090282EB77
:1002640090E00E94150281E00E9410028823D9F3D5
:1002740013BE81E088BF60E00E94D90181111CC0D7
:1002840001301105F1F4C60183709927892BB9F067
:10029400C60183709078992324F401978C6F9F6F23
:1002A40001960F2EF3E0EF2EF12CF02D00E010E07C
:1002B400019709F024CF05C001E010E002C000E07E
:1002C40010E02196C83E83E0D8073CF2760117CFB0
:1002D400843018F01092600030C04130B9F4E82F37
:1002E400F0E0EE0FFF1FEF58FF4F0190F081E02D7B
:1002F400208181E090E002C0880F991F6A95E2F79F
:10030400822B808381E08093600017C0E82FF0E0A7
:10031400EE0FFF1FEF58FF4F0190F081E02D208179
:1003240081E090E002C0880F991F6A95E2F78095FA
:100334008223808381E0809360008091600008952F
:10034400843020F01092600080E008954130B9F4C8
:10035400E82FF0E0EE0FFF1FE759FF4F0190F08107
:10036400E02D208181E090E002C0880F991F6A95FA
:10037400E2F7822B808381E0809360000895E82F68
:10038400F0E0EE0FFF1FE759FF4F0190F081E02DE1
:10039400208181E090E002C0880F991F6A95E2F7FE
:0E03A40080958223808381E08093600008951D
:1003B200843018F01092600003C091E090936000C6
:1003C200E82FF0E0EE0FFF1FEF59FF4F0190F08191
:1003D200E02D408181E090E09C01062E02C0220FB8
:1003E200331F0A94E2F7842F90E08223932302C002
:0A03F200959587956A95E2F7089546
:1003FC00EC010E941A020E941902CE010E941B02FB
:06040C00CE010E94170260
:0E04120085E083BF12BE88B7816088BF089561
:0604200098B7892308953E
:040426000C94000032
:04042A0082BF0895F0
:04042E000E945800D0
:0204320008952B
:02043400089529
:02043600089527
:080438003900360033003000EA
:080440003A00370034003100DE
:080448003B00380035003200D2
:00000001FF
